:100000000C9437000C945F000C945F000C945F001C
:100010000C945F000C945F000C945F000C945F00E4
:100020000C945F000C945F000C945F000C945F00D4
:100030000C945F000C945F000C945F000C945F00C4
:100040000C9493030C945F000C94E6010C9418023A
:100050000C945F000C945F000C945F000C945F00A4
:100060000C945F000C945F00970048029D001124DF
:100070001FBECFEFD8E0DEBFCDBF11E0A0E0B1E002
:10008000EAE0FDE002C005900D92A236B107D9F773
:1000900022E0A2E6B1E001C01D92A231B207E1F771
:1000A00010E0CCE6D0E004C02297FE010E943C04A0
:1000B000C836D107C9F70E9484030C9478060C94C3
:1000C000000026E040E855E260E070E088E691E05C
:1000D0000E94840166E071E088E691E00E94ED02F2
:1000E0006BE071E088E691E00E94ED0268E171E06A
:1000F00088E691E00E94ED0263E271E088E691E01B
:100100000E94ED02E0916801F09169010280F381A3
:10011000E02D43E150E06DE271E088E691E0099561
:1001200062E671E088E691E00C94DB02089563E5F5
:1001300071E082E691E00C946D0382E691E00C940C
:10014000FF02FC01818D228D90E0805C9F4F821B1D
:1001500091098F7399270895FC01918D828D9817CD
:1001600031F0828DE80FF11D858D90E008958FEFBD
:100170009FEF0895FC01918D828D981761F0828D1B
:10018000DF01A80FB11D5D968C91928D9F5F9F73CB
:10019000928F90E008958FEF9FEF08958EE392E0A5
:1001A000892B49F080E090E0892B29F00E943E02E3
:1001B00081110C9400000895FC01848DDF01A80FCB
:1001C000B11DA35ABF4F2C91848D90E001968F737F
:1001D0009927848FA689B7892C93A089B1898C919E
:1001E00080648C93938D848D981306C00288F38964
:1001F000E02D80818F7D80830895CF93DF93EC0184
:10020000888D8823C9F0EA89FB89808185FD05C036
:10021000A889B9898C9186FD0FC00FB607FCF5CF70
:10022000808185FFF2CFA889B9898C9185FFEDCFB8
:10023000CE010E94DC00E7CFDF91CF910895CF92ED
:10024000DF92FF920F931F93CF93DF931F92CDB74F
:10025000DEB76C0181E0D60158968C9358975B9677
:100260009C915B975C968C915C97981307C0509615
:10027000ED91FC915197808185FD2EC0F601038D93
:1002800010E00F5F1F4F0F731127F02EF601848DC2
:10029000F81211C00FB607FCF9CFD6015096ED91B8
:1002A000FC915197808185FFF1CFC60169830E943F
:1002B000DC006981EBCF838DE80FF11DE35AFF4F1E
:1002C0006083D6015B960C935B975296ED91FC91FF
:1002D0005397808180620CC0D6015696ED91FC91B7
:1002E000579760835096ED91FC915197808180647F
:1002F000808381E090E00F90DF91CF911F910F916B
:10030000FF90DF90CF900895BF92CF92DF92EF924F
:10031000FF92CF93DF93EC016A017B01B22EE88953
:10032000F98982E08083411581EE580761057105E6
:10033000A1F060E079E08DE390E0A70196010E94D2
:1003400018042150310941095109569547953795AF
:100350002795211580E1380798F0E889F9891082FE
:1003600060E874E88EE190E0A70196010E9418040D
:1003700021503109410951095695479537952795DF
:10038000EC85FD853083EE85FF852083188EEC8912
:10039000FD89B082EA89FB89808180618083EA8956
:1003A000FB89808188608083EA89FB8980818068FD
:1003B0008083EA89FB8980818F7D8083DF91CF9163
:1003C000FF90EF90DF90CF90BF9008951F920F9213
:1003D0000FB60F9211242F938F939F93EF93FF9358
:1003E000E0917801F09179018081E0917E01F091B6
:1003F0007F0182FD12C09081809181018F5F8F7398
:1004000020918201821751F0E0918101F0E0E859DA
:10041000FE4F958F8093810101C08081FF91EF9104
:100420009F918F912F910F900FBE0F901F90189555
:100430001F920F920FB60F9211242F933F934F9359
:100440005F936F937F938F939F93AF93BF93EF933C
:10045000FF9388E691E00E94DC00FF91EF91BF914D
:10046000AF919F918F917F916F915F914F913F914C
:100470002F910F900FBE0F901F90189588E691E076
:100480000E94A10021E0892B09F420E0822F089529
:1004900010926B0110926A0188EE93E0A0E0B0E048
:1004A00080936C0190936D01A0936E01B0936F01E6
:1004B00085E491E0909369018093680185EC90E078
:1004C000909375018093740184EC90E09093770190
:1004D0008093760180EC90E090937901809378018D
:1004E00081EC90E090937B0180937A0182EC90E024
:1004F00090937D0180937C0186EC90E090937F0146
:1005000080937E01109281011092820110928301EA
:10051000109284010895CF92DF92EF92FF920F9391
:100520001F93CF93DF937C016A01EB0100E010E0A1
:100530000C151D0571F06991D701ED91FC910190A9
:10054000F081E02DC7010995892B19F00F5F1F4F2E
:10055000EFCFC801DF91CF911F910F91FF90EF90E6
:10056000DF90CF9008956115710581F0DB010D904A
:100570000020E9F7AD0141505109461B570BDC0142
:10058000ED91FC910280F381E02D099480E090E0F0
:100590000895DC01ED91FC91DB0114964D915C9185
:1005A00015976D917C910280F381E02D099461E5AE
:1005B00071E00C94B3020F931F93CF93DF93EC0180
:1005C0000E94C9028C01CE010E94D702800F911FA8
:1005D000DF91CF911F910F9108950F931F93CF93A8
:1005E000DF93EC010E94B3028C01CE010E94D7027E
:1005F000800F911FDF91CF911F910F910895FC0102
:10060000808191810C94D804CF93DF93EC01888191
:100610009981009711F00E94D804198218821D82D6
:100620001C821B821A82DF91CF9108950F931F9332
:10063000CF93DF93EC018B016F5F7F4F88819981AE
:100640000E946705009731F0998388831B830A8392
:1006500081E001C080E0DF91CF911F910F9108955B
:10066000CF93DF93EC0188819981892B29F08A81CE
:100670009B818617970760F4CE010E94160388239A
:1006800041F08C819D81892B19F4E881F9811082D8
:1006900081E0DF91CF910895EF92FF920F931F9326
:1006A000CF93DF93EC017B018A01BA010E943003F2
:1006B000811104C0CE010E94040307C01D830C8376
:1006C000B701888199810E943A06CE01DF91CF91CE
:1006D0001F910F91FF90EF900895FC0111821082FD
:1006E00013821282158214826115710559F0FB0183
:1006F00001900020E9F7AF0141505109461B570B0B
:100700000C944C03089508950E94DD030E94830316
:100710000E946100CEECD0E00E9496002097E1F3A9
:100720000E94CE00F9CF1F920F920FB60F921124A4
:100730002F933F938F939F93AF93BF938091060224
:1007400090910702A0910802B09109023091050230
:1007500023E0230F2D3720F40196A11DB11D05C004
:1007600026E8230F0296A11DB11D20930502809358
:10077000060290930702A0930802B09309028091A9
:100780000A0290910B02A0910C02B0910D02019609
:10079000A11DB11D80930A0290930B02A0930C023D
:1007A000B0930D02BF91AF919F918F913F912F9187
:1007B0000F900FBE0F901F901895789484B58260AB
:1007C00084BD84B5816084BD85B5826085BD85B5F5
:1007D000816085BDEEE6F0E0808181608083E1E8A4
:1007E000F0E01082808182608083808181608083DC
:1007F000E0E8F0E0808181608083E1EBF0E08081DF
:1008000084608083E0EBF0E0808181608083EAE7B0
:10081000F0E0808184608083808182608083808139
:10082000816080838081806880831092C1000895F8
:10083000A1E21A2EAA1BBB1BFD010DC0AA1FBB1FE4
:10084000EE1FFF1FA217B307E407F50720F0A21B56
:10085000B30BE40BF50B661F771F881F991F1A94C3
:1008600069F760957095809590959B01AC01BD01ED
:10087000CF010895EE0FFF1F0590F491E02D09942C
:10088000CF93DF938230910510F482E090E0E09105
:100890001002F091110220E030E0A0E0B0E03097CB
:1008A00039F14081518148175907B8F04817590765
:1008B00071F482819381109729F013969C938E9303
:1008C00012972CC0909311028093100227C021151B
:1008D000310531F04217530718F0A901DB0101C0BF
:1008E000EF019A01BD01DF010280F381E02DD7CF36
:1008F00021153105F9F0281B390B2430310580F41E
:100900008A819B816115710521F0FB0193838283AC
:1009100004C09093110280931002FE01329644C0ED
:10092000FE01E20FF31F8193919322503109398325
:1009300028833AC020910E0230910F02232B41F4FC
:10094000209102013091030130930F0220930E0297
:1009500020910001309101012115310541F42DB79D
:100960003EB74091040150910501241B350BE091E5
:100970000E02F0910F02E217F307A0F42E1B3F0BBB
:100980002817390778F0AC014E5F5F4F2417350701
:1009900048F04E0F5F1F50930F0240930E02819359
:1009A000919302C0E0E0F0E0CF01DF91CF91089594
:1009B000CF93DF93009709F487C0FC01329713822D
:1009C0001282C0911002D0911102209781F42081EF
:1009D0003181280F391F80910E0290910F028217EA
:1009E000930779F5F0930F02E0930E026DC0DE01DC
:1009F00020E030E0AE17BF0750F412964D915C91A5
:100A000013979D014115510509F1DA01F3CFB38325
:100A1000A28340815181840F951F8A179B0771F42F
:100A20008D919C911197840F951F029691838083DD
:100A300012968D919C911397938382832115310592
:100A400029F4F0931102E09310023EC0D9011396ED
:100A5000FC93EE9312974D915D91A40FB51FEA1789
:100A6000FB0779F480819181840F951F0296D9014B
:100A700011969C938E938281938113969C938E936F
:100A80001297E0E0F0E08A819B81009719F0FE0167
:100A9000EC01F9CFCE01029628813981820F931F94
:100AA00020910E0230910F022817390769F4309710
:100AB00029F4109211021092100202C013821282C5
:100AC000D0930F02C0930E02DF91CF910895A0E062
:100AD000B0E0EDE6F5E00C944506EC01CB01209783
:100AE00019F40E944004B8C0FE01E60FF71F9E01F2
:100AF00022503109E217F30708F4ACC0D9010D9177
:100B00001C91119706171707B8F00530110508F466
:100B10009FC0A801445051094617570708F498C0D0
:100B200002501109061B170B019311936D937C93CF
:100B3000CF010E94D8048CC05B01A01AB10A4E01FB
:100B4000800E911EA0911002B0911102612C712CA7
:100B500060E070E0109709F449C0A815B905C9F51F
:100B6000ED90FC901197670142E0C40ED11CCA14AD
:100B7000DB0478F147018A189B08640142E0C40E47
:100B8000D11C1296BC9012971396AC91B5E0CB167F
:100B9000D10440F0B282A38391828082D9018D93E7
:100BA0009C9309C00E5F1F4F0E0D1F1DF90111838D
:100BB0000083EB2DFA2F6115710531F0DB011396DF
:100BC000FC93EE93129744C0F0931102E09310024D
:100BD0003FC06D917C9111976616770608F43B0132
:100BE000BD0112960D90BC91A02DB4CF60910E0264
:100BF00070910F0268157905E9F468167906D0F44A
:100C000040910001509101014115510541F44DB74A
:100C10005EB76091040170910501461B570BE41704
:100C2000F507C0F4F0930F02E0930E02F9019183EF
:100C300080830EC00E9440047C01009759F0A801F7
:100C4000BE010E943106CE010E94D804C70104C033
:100C5000CE0102C080E090E0CDB7DEB7EEE00C94AC
:100C60006106FB01DC0102C001900D924150504031
:100C7000D8F70895FB01DC0101900D920020E1F707
:100C800008952F923F924F925F926F927F928F9230
:100C90009F92AF92BF92CF92DF92EF92FF920F930B
:100CA0001F93CF93DF93CDB7DEB7CA1BDB0B0FB615
:100CB000F894DEBF0FBECDBF09942A8839884888D2
:100CC0005F846E847D848C849B84AA84B984C88468
:100CD000DF80EE80FD800C811B81AA81B981CE0F5F
:100CE000D11D0FB6F894DEBF0FBECDBFED01089544
:100CF00010E0CCE6D0E004C0FE010E943C04229645
:0A0D0000CE36D107C9F7F894FFCFF3
:100D0A000000120280004D72203A004E756DC3A990
:100D1A00726F2031203A2000202020206F75202079
:100D2A002020004E756DC3A9726F2032005361698D
:100D3A0073697220756E206E6F6D627265203A203B
:100D4A0000000000001F018B02A100BA00AC00FDE8
:100D5A00000D0A006E616E00696E66006F766600AD
:020D6A002E0059
:00000001FF
