:100000000C9461000C947E000C947E000C947E0095
:100010000C947E000C947E000C947E000C947E0068
:100020000C947E000C947E000C947E000C947E0058
:100030000C947E000C947E000C947E000C947E0048
:100040000C94B6000C947E000C947E000C947E0000
:100050000C947E000C947E000C947E000C947E0028
:100060000C947E000C947E00000000080002010049
:100070000003040700000000000000000102040863
:100080001020408001020408102001020408102002
:10009000040404040404040402020202020203032E
:1000A00003030303000000002300260029000000D2
:1000B0000000250028002B0000000000240027007D
:1000C0002A0011241FBECFEFD8E0DEBFCDBF11E064
:1000D000A0E0B1E0E4EBF4E002C005900D92A630A0
:1000E000B107D9F721E0A6E0B1E001C01D92AF3021
:1000F000B207E1F70E9448020C9458020C940000E9
:1001000060E0809104010E94AF0161E080910201F2
:100110000E94AF0161E0809100010C94AF018091D9
:1001200004010E941E02892B31F461E080910201DA
:100130000E94E801F4CF60E0809102010E94E80192
:1001400061E0809100010E94E8016CE271E080E0D2
:1001500090E00E94230160E0809100010E94E8018C
:100160006CE271E080E090E00C9423011F920F920A
:100170000FB60F9211242F933F938F939F93AF93BA
:10018000BF938091070190910801A0910901B0915E
:100190000A013091060123E0230F2D3720F4019648
:1001A000A11DB11D05C026E8230F0296A11DB11D9A
:1001B000209306018093070190930801A093090101
:1001C000B0930A0180910B0190910C01A0910D0157
:1001D000B0910E010196A11DB11D80930B0190936A
:1001E0000C01A0930D01B0930E01BF91AF919F91AF
:1001F0008F913F912F910F900FBE0F901F901895E8
:100200003FB7F89480910B0190910C01A0910D01E2
:10021000B0910E0126B5A89B05C02F3F19F001969D
:10022000A11DB11D3FBF6627782F892F9A2F620F1E
:10023000711D811D911D42E0660F771F881F991F58
:100240004A95D1F70895CF92DF92EF92FF92CF9324
:10025000DF936B017C010E940001EB01C114D1040A
:10026000E104F10489F00E9457020E9400016C1B16
:100270007D0B683E734090F381E0C81AD108E10815
:10028000F108C851DC4FEACFDF91CF91FF90EF909A
:10029000DF90CF900895789484B5826084BD84B552
:1002A000816084BD85B5826085BD85B5816085BD71
:1002B000EEE6F0E0808181608083E1E8F0E010828A
:1002C000808182608083808181608083E0E8F0E0CB
:1002D000808181608083E1EBF0E0808184608083B5
:1002E000E0EBF0E0808181608083EAE7F0E08081EC
:1002F000846080838081826080838081816080834C
:100300008081806880831092C1000895833081F0DD
:1003100028F4813099F08230A1F008958730A9F057
:100320008830B9F08430D1F4809180008F7D03C093
:10033000809180008F7780938000089584B58F77B7
:1003400002C084B58F7D84BD08958091B0008F7701
:1003500003C08091B0008F7D8093B0000895CF934B
:10036000DF9390E0FC01E458FF4F2491FC01E0573B
:10037000FF4F8491882349F190E0880F991FFC0179
:10038000E854FF4FA591B49182559F4FFC01C59150
:10039000D4919FB7611108C0F8948C912095822365
:1003A0008C93888182230AC0623051F4F8948C9136
:1003B000322F309583238C938881822B888304C0CD
:1003C000F8948C91822B8C939FBFDF91CF910895ED
:1003D0000F931F93CF93DF931F92CDB7DEB7282FD4
:1003E00030E0F901E859FF4F8491F901E458FF4FDB
:1003F0001491F901E057FF4F04910023C9F08823BD
:1004000021F069830E9486016981E02FF0E0EE0F00
:10041000FF1FE255FF4FA591B4919FB7F8948C91BF
:10042000611103C01095812301C0812B8C939FBF64
:100430000F90DF91CF911F910F910895CF93DF938C
:10044000282F30E0F901E859FF4F8491F901E45871
:10045000FF4FD491F901E057FF4FC491CC2391F0A5
:1004600081110E948601EC2FF0E0EE0FFF1FEC558A
:10047000FF4FA591B4912C912D2381E090E021F4C0
:1004800080E002C080E090E0DF91CF910895089570
:100490000E944B010E9447020E948000C0E0D0E011
:1004A0000E948F002097E1F30E940000F9CF089589
:0404B000F894FFCFEE
:0604B400020003000D0030
:107E0000112484B714BE81FFF0D085E080938100F7
:107E100082E08093C00088E18093C10086E0809377
:107E2000C20080E18093C4008EE0C9D0259A86E02C
:107E300020E33CEF91E0309385002093840096BBD3
:107E4000B09BFECF1D9AA8958150A9F7CC24DD24C4
:107E500088248394B5E0AB2EA1E19A2EF3E0BF2EE7
:107E6000A2D0813461F49FD0082FAFD0023811F036
:107E7000013811F484E001C083E08DD089C08234E0
:107E800011F484E103C0853419F485E0A6D080C0E4
:107E9000853579F488D0E82EFF2485D0082F10E0AE
:107EA000102F00270E291F29000F111F8ED06801E7
:107EB0006FC0863521F484E090D080E0DECF843638
:107EC00009F040C070D06FD0082F6DD080E0C81688
:107ED00080E7D80618F4F601B7BEE895C0E0D1E017
:107EE00062D089930C17E1F7F0E0CF16F0E7DF06D8
:107EF00018F0F601B7BEE89568D007B600FCFDCFD4
:107F0000A601A0E0B1E02C9130E011968C91119780
:107F100090E0982F8827822B932B1296FA010C0160
:107F200087BEE89511244E5F5F4FF1E0A038BF0790
:107F300051F7F601A7BEE89507B600FCFDCF97BE46
:107F4000E89526C08437B1F42ED02DD0F82E2BD052
:107F50003CD0F601EF2C8F010F5F1F4F84911BD097
:107F6000EA94F801C1F70894C11CD11CFA94CF0C13
:107F7000D11C0EC0853739F428D08EE10CD085E9AC
:107F80000AD08FE07ACF813511F488E018D01DD067
:107F900080E101D065CF982F8091C00085FFFCCF94
:107FA0009093C60008958091C00087FFFCCF809118
:107FB000C00084FD01C0A8958091C6000895E0E648
:107FC000F0E098E1908380830895EDDF803219F02E
:107FD00088E0F5DFFFCF84E1DECF1F93182FE3DFCA
:107FE0001150E9F7F2DF1F91089580E0E8DFEE27F6
:047FF000FF270994CA
:027FFE00040479
:0400000300007E007B
:00000001FF
