:100000000C9452000C9464000C9464000C946400F2
:100010000C9464000C9464000C9464000C946400D0
:100020000C9464000C9464000C9464000C946400C0
:100030000C9464000C9464000C9464000C946400B0
:100040000C9412010C9464000C9464000C946400F1
:100050000C9464000C9464000C9464000C94640090
:100060000C9464000C946400010204081020408089
:1000700001020408102001020408102004040404F2
:100080000404040402020202020203030303030342
:1000900000000000250028002B00000000002400C4
:1000A00027002A0011241FBECFEFD8E0DEBFCDBF4E
:1000B00021E0A0E0B1E001C01D92A930B207E1F754
:1000C0000E941C020C942C020C94000061E080E061
:1000D0000E94E20161E081E00E94E20161E082E0D1
:1000E0000E94E20161E083E00E94E20161E084E0BD
:1000F0000E94E20161E085E00E94E20161E086E0A9
:100100000E94E20161E087E00C94E201CF92DF926D
:10011000EF92FF920F931F93CF93DF93C1E0CBB980
:1001200064E670E080E090E00E947F01D2E0DBB9FD
:1001300064E670E080E090E00E947F0114E01BB96B
:1001400064E670E080E090E00E947F0108E00BB977
:1001500064E670E080E090E00E947F0180E1F82E8C
:10016000FBB864E670E080E090E00E947F0190E2DE
:10017000E92EEBB864E670E080E090E00E947F0139
:1001800020E4D22EDBB864E670E080E090E00E94CC
:100190007F0130E8C32ECBB864E670E080E090E0E9
:1001A0000E947F01CBB864E670E080E090E00E949E
:1001B0007F01DBB864E670E080E090E00E947F01A0
:1001C000EBB864E670E080E090E00E947F01FBB84D
:1001D00064E670E080E090E00E947F010BB964E685
:1001E00070E080E090E00E947F011BB964E670E05F
:1001F00080E090E00E947F01DBB964E670E080E07F
:1002000090E00E947F01CBB964E670E080E090E06E
:10021000DF91CF911F910F91FF90EF90DF90CF90E2
:100220000C947F011F920F920FB60F9211242F93FF
:100230003F938F939F93AF93BF93809101019091D0
:100240000201A0910301B09104013091000123E06B
:10025000230F2D3720F40196A11DB11D05C026E8FE
:10026000230F0296A11DB11D20930001809301016F
:1002700090930201A0930301B093040180910501C2
:1002800090910601A0910701B09108010196A11D6E
:10029000B11D8093050190930601A0930701B093CF
:1002A0000801BF91AF919F918F913F912F910F9036
:1002B0000FBE0F901F9018953FB7F89480910501DD
:1002C00090910601A0910701B091080126B5A89B65
:1002D00005C02F3F19F00196A11DB11D3FBF662734
:1002E000782F892F9A2F620F711D811D911D42E079
:1002F000660F771F881F991F4A95D1F70895CF92EF
:10030000DF92EF92FF92CF93DF936B017C010E940B
:100310005C01EB01C114D104E104F10489F00E94F5
:100320002B020E945C016C1B7D0B683E734090F3B6
:1003300081E0C81AD108E108F108C851DC4FEACFC2
:10034000DF91CF91FF90EF90DF90CF900895789458
:1003500084B5826084BD84B5816084BD85B58260CA
:1003600085BD85B5816085BDEEE6F0E08081816068
:100370008083E1E8F0E01082808182608083808168
:1003800081608083E0E8F0E0808181608083E1EB40
:10039000F0E0808184608083E0EBF0E08081816028
:1003A0008083EAE7F0E080818460808380818260DE
:1003B00080838081816080838081806880831092C7
:1003C000C1000895CF93DF9390E0FC01E859FF4FFF
:1003D0002491FC01E458FF4F8491882349F190E077
:1003E000880F991FFC01E656FF4FA591B4918057E5
:1003F0009F4FFC01C591D4919FB7611108C0F8943B
:100400008C91209582238C93888182230AC062304C
:1004100051F4F8948C91322F309583238C938881FA
:10042000822B888304C0F8948C91822B8C939FBF7D
:10043000DF91CF91089508950E94A7010E941B02A9
:100440000E946600C0E0D0E00E9486002097E1F3A1
:0C0450000E940000F9CF0895F894FFCF3F
:107E0000112484B714BE81FFF0D085E080938100F7
:107E100082E08093C00088E18093C10086E0809377
:107E2000C20080E18093C4008EE0C9D0259A86E02C
:107E300020E33CEF91E0309385002093840096BBD3
:107E4000B09BFECF1D9AA8958150A9F7CC24DD24C4
:107E500088248394B5E0AB2EA1E19A2EF3E0BF2EE7
:107E6000A2D0813461F49FD0082FAFD0023811F036
:107E7000013811F484E001C083E08DD089C08234E0
:107E800011F484E103C0853419F485E0A6D080C0E4
:107E9000853579F488D0E82EFF2485D0082F10E0AE
:107EA000102F00270E291F29000F111F8ED06801E7
:107EB0006FC0863521F484E090D080E0DECF843638
:107EC00009F040C070D06FD0082F6DD080E0C81688
:107ED00080E7D80618F4F601B7BEE895C0E0D1E017
:107EE00062D089930C17E1F7F0E0CF16F0E7DF06D8
:107EF00018F0F601B7BEE89568D007B600FCFDCFD4
:107F0000A601A0E0B1E02C9130E011968C91119780
:107F100090E0982F8827822B932B1296FA010C0160
:107F200087BEE89511244E5F5F4FF1E0A038BF0790
:107F300051F7F601A7BEE89507B600FCFDCF97BE46
:107F4000E89526C08437B1F42ED02DD0F82E2BD052
:107F50003CD0F601EF2C8F010F5F1F4F84911BD097
:107F6000EA94F801C1F70894C11CD11CFA94CF0C13
:107F7000D11C0EC0853739F428D08EE10CD085E9AC
:107F80000AD08FE07ACF813511F488E018D01DD067
:107F900080E101D065CF982F8091C00085FFFCCF94
:107FA0009093C60008958091C00087FFFCCF809118
:107FB000C00084FD01C0A8958091C6000895E0E648
:107FC000F0E098E1908380830895EDDF803219F02E
:107FD00088E0F5DFFFCF84E1DECF1F93182FE3DFCA
:107FE0001150E9F7F2DF1F91089580E0E8DFEE27F6
:047FF000FF270994CA
:027FFE00040479
:0400000300007E007B
:00000001FF
